:020000040800F2
:1000000000A00020B9020008BF020008C3020008D7
:10001000DB020008DF020008F70200080000000011
:100020000000000000000000000000000F030008B6
:100030001303000800000000170300089D070008D4
:1000400029030008290300082903000829030008E0
:1000500029030008290300082903000829030008D0
:1000600029030008290300082903000829030008C0
:1000700029030008290300082903000829030008B0
:1000800029030008290300082903000829030008A0
:100090002903000829030008290300082903000890
:1000A0002903000829030008290300082903000880
:1000B0002903000829030008290300082903000870
:1000C0002903000829030008290300082903000860
:1000D0002903000829030008290300082903000850
:1000E0002903000829030008290300082903000840
:1000F0002903000829030008290300082903000830
:1001000000000000000000000000000029030008BB
:10011000290300082903000829030008290300080F
:1001200029030008290300082903000829030008FF
:100130002903000829030008000000000000000057
:100140002903000829030008290300080000000013
:10015000000000000000000000000000000000009F
:100160000000000000000000290300082903000827
:10017000290300080000000000000000000000004B
:10018000000000002903000800B583B000F0D4F996
:10019000384B394A1360394A1360394906E052F83E
:1001A000041B43F8041B9842F9D86146354B994229
:1001B00005D20A684B6801F10C0C8868F3E72E4BF6
:1001C0001A68314B9A4200D0FEE72C4B1A682F4B2D
:1001D0009A42F9D1274B2E4A13602E4A13602E4AB9
:1001E00000E002462D4B9A4209D2104650F8083BD7
:1001F00051689942F5D9002243F8042BF9E7244BC2
:100200001B6813B9234B1B6803B1FEE700F0A0F98C
:10021000694601A800F084F9214C224BE41AA4108D
:10022000002504E01F4B53F8253098470135AC42B8
:10023000F8DC1D4C1D4BE41AA410002504E01B4BF8
:1002400053F8253098470135AC42F8DC0099019805
:1002500000F0A8FA0546164C164BE41AA41004E068
:10026000013C144B53F824309847002CF8DC284606
:1002700000F050F9BABADECA0000002020000020C9
:100280002C03000844030008785634123254769840
:1002900024000020640100204403000854030008E7
:1002A00054030008540300085403000854030008D2
:1002B000540300085403000808B5FFF765FF00BEAB
:1002C000FEE71EF0040F0CBFEFF30880EFF3098088
:1002D0007146124A104700BEFEE700BEFEE71EF060
:1002E000040F0CBFEFF30880EFF3098071460C4A4E
:1002F000104700BEFEE71EF0040F0CBFEFF30880AE
:10030000EFF309807146074A104700BEFEE700BEC2
:10031000FEE700BEFEE700BEFEE77047D70200081A
:0C032000F30200080B03000800BEFEE71B
:10032C00100B00080000002024000020100B000817
:10033C0000000010000000102400002068010020C4
:08034C00000000100000001089
:1003540070B505460E46B0F1904F16D0414B984209
:1003640013D003F5806398420FD003F5806398425D
:100374000BD003F58063984207D003F5806398425D
:1003840003D0B921384800F0D1F833683BB1337950
:10039400032B09D8F379022B0BD800243CE0BA21B3
:1003A400314800F0C3F8F2E7BB212F4800F0BEF853
:1003B400F0E7BC212C4800F0B9F8EEE7CC212A483C
:1003C40000F0B4F839E0AB889BB2A1B201228A40B4
:1003D40023EA0203AB80AB889BB2B2798A4092B223
:1003E4001343AB802A686100032303FA01F022EA75
:1003F40000022A602A683079884002432A60EA6849
:10040400A0B24000834022EA0303EB60EB68F27978
:100414008A401343EB6001340F2C22D80123A340FC
:1004240032689343F7D13379013BDBB2012BD9D83E
:100434007379013BDBB2022BC0D8AB6861000322A5
:100444008A4023EA0203AB60AB6872798A401343A3
:10045400AB60B379012BB6D9D321034800F066F819
:10046400B1E770BD00040048740A000838B50446BA
:100474000D46B0F1904F17D0104B984214D003F5AD
:100484008063984210D003F5806398420CD003F542
:100494008063984208D003F58063984204D04FF4F7
:1004A400CD71074800F042F80DB1258538BD40F202
:1004B4009B11034800F03AF8F7E700BF0004004836
:1004C400740A000838B504460D460E4B034003B9C0
:1004D40020B940F25C510C4800F028F8012D05D8F1
:1004E40055B10A4A53692343536138BD40F25D5103
:1004F400054800F01BF8F3E7044A536923EA0403B0
:100504005361F2E7A8FF81CEA80A00080010024058
:10051400FEE708B50120FFF7FBFF0000012303609D
:10052400014B0B60704700BF0400002008B5FFF7C3
:10053400F0FF000008B500F065F8024A024B9A602B
:1005440008BD00BF0000000800ED00E008B500F0A1
:100554008BF808BD82B0002301930093274A1368E7
:1005640043F480331360254B1B6803F4003300937A
:10057400019B01330193009B1BB9019BB3F5A06F51
:10058400F1D11E4B1B6813F4003F06D001230093E6
:10059400009B012B04D002B0704700230093F7E7BF
:1005A400174B12221A60A3F580535A685A605A688E
:1005B4005A605A6842F480625A605A6822F47C1283
:1005C4005A605A6842F4E8125A601A6842F080721B
:1005D4001A600A4B1B6813F0007FFAD0074B5A6865
:1005E40022F003025A605A6842F002025A60034B36
:1005F4005B6803F00C03082BF9D1CCE70010024030
:100604000020024008B5144B1A6842F001021A6037
:100614005968124A0A405A601A6822F0847222F415
:1006240080321A601A6822F480221A605A6822F40E
:10063400FE025A60DA6A22F00F02DA62196B084A83
:100644000A401A6300229A60FFF784FF054B4FF0BB
:1006540000629A6008BD00BF001002400CC07FF821
:10066400CCFC00FF00ED00E01D4B5B6803F00C03C5
:10067400042B15D0082B17D01BB11A4B1A4A1A6039
:1006840002E0184B184A1A60154B5B68C3F3031356
:10069400164AD25CD2B213490B68D3400B60704740
:1006A400104B114A1A60EFE70D4A53685268C3F3BE
:1006B4008343023312F4803F05D10D4A02FB03F356
:1006C400084A1360E0E7064AD16A01F00F010131DC
:1006D400054AB2FBF1F202FB03F3024A1360D3E7CB
:1006E400001002401C00002000127A000C000020C0
:1006F40000093D0030B583B001214FF40010FFF72D
:10070400E1FE4FF40045009501238DF804300023E9
:100714008DF8063003228DF805208DF80730054C3E
:1007240069462046FFF714FE29462046FFF79EFE41
:1007340003B030BD001000480A4B1B680A4AA2FBF4
:1007440003239B09013BB3F1807F0AD24FF0E022DF
:100754005361064BF02183F8231000239361072390
:10076400136170471C000020D34D621000ED00E0BF
:10077400034B1860024B1B68002BFBD1704700BF72
:100784002C000020034B1B681BB1024A1368013B79
:10079400136070472C00002008B5FFF7F3FF08BD75
:1007A40080B586B000AF786039601F4BFB601F4B8B
:1007B4003B61FFF7C1FFFFF79DFF00237B611C4BEB
:1007C4007B221A707B69002B02D14FF47A7301E00B
:1007D40040F2EE231846FFF7CBFFFA20FFF7C8FFDD
:1007E4007B6901337B617B69DAB2124B1A707B69D6
:1007F4005AB2114B1A707B699AB2104B1A807B69FA
:100804001AB20F4B1A800F4A7B6913607B690E4A38
:100814001360786900F0D4F803460C4A13600C4B5B
:10082400BB6000BFCEE700BFD80A0008EC0A00088E
:100834005001002030000020400000205000002023
:100844007000002090000020D00000201001002043
:10085400040B000880F0004002E000BF81F000417A
:1008640042001FBF5FEA410392EA030F7FEA226C52
:100874007FEA236C6AD04FEA1262D2EB1363C1BFE2
:10088400D218414048404140B8BF5B42192B88BF51
:10089400704710F0004F40F4000020F07F4018BF74
:1008A400404211F0004F41F4000121F07F4118BF94
:1008B400494292EA030F3FD0A2F1010241FA03FC3C
:1008C40010EB0C00C3F1200301FA03F100F0004324
:1008D40002D5494260EB4000B0F5000F13D3B0F1EC
:1008E400807F06D340084FEA310102F10102FE2A5B
:1008F40051D2B1F1004F40EBC25008BF20F00100CB
:1009040040EA03007047490040EB0000013A28BF69
:10091400B0F5000FEDD2B0FA80FCACF1080CB2EBEC
:100924000C0200FA0CF0AABF00EBC250524218436A
:10093400BCBFD0401843704792F0000F81F400010F
:1009440006BF80F400000132013BB5E74FEA4103E2
:100954007FEA226C18BF7FEA236C21D092EA030F4E
:1009640004D092F0000F08BF0846704790EA010FC8
:100974001CBF0020704712F07F4F04D1400028BFF5
:1009840040F00040704712F100723CBF00F50000D7
:10099400704700F0004343F0FE4040F4000070470D
:1009A4007FEA226216BF08467FEA236301464202B9
:1009B40006BF5FEA412390EA010F40F480007047CC
:1009C4004FF0000304E000BF10F0004348BF404272
:1009D4005FEA000C08BF704743F0964301464FF0AE
:1009E40000001CE050EA010208BF70474FF000030A
:1009F4000AE000BF50EA010208BF704711F000434B
:100A040002D5404261EB41015FEA010C02BF84461A
:100A14000146002043F0B64308BFA3F18053A3F579
:100A24000003BCFA8CF2083AA3EBC25310DB01FAC0
:100A340002FC634400FA02FCC2F12002BCF1004F44
:100A440020FA02F243EB020008BF20F001007047D5
:100A540002F1200201FA02FCC2F1200250EA4C0029
:100A640021FA02F243EB020008BF20EADC7070476F
:100A74002E2E2F73797374656D2F7372632F7374B5
:100A84006D333266332D7374647065726970682FC8
:100A940073746D3332663330785F6770696F2E63B9
:100AA400000000002E2E2F73797374656D2F7372FE
:100AB400632F73746D333266332D7374647065728F
:100AC4006970682F73746D3332663330785F726384
:100AD400632E630048656C6C6F2041726D20576F04
:100AE400726C64210000000053797374656D206397
:100AF4006C6F636B3A20257520487A0A0000000069
:0B0B04005365636F6E642025750A00C6
:100B10007856341228000020000000000000000079
:100B200000000000010203040607080900A24A04AD
:040B3000325476982D
:040000050800018965
:00000001FF
